:100000000C94B80E0C94E90E0C94E90E0C94E90EC5
:100010000C94E90E0C94E90E0C94E90E0C94E90E84
:100020000C94E90E0C94E90E0C94E90E0C94E90E74
:100030000C94E90E0C9419D30C94E90E0C94E90E6F
:100040000C94E90E0C9457810C94E90E0C94E90E73
:100050000C94E90E0C94E90E0C94BC920C9401CD16
:100060000C94E90E0C94F31E0C94E90E0C94E90E1A
:100070000C94E90E0C94E90E0C94E90E0C94E90E24
:100080000C94E90E0C94E90E0C94E90E0C94E90E14
:100090000C94E90E0C94E90E0C94E90E0C9418CA19
:1000A0000C94E90E0C94E90E0C94E90E0C94E90EF4
:1000B0000C94E90E0C94E90E0C94E90E0C94E90EE4
:1000C0000C94E90E0C94E90E0C94E90E0C94E90ED4
:1000D0000C94E90E0C94E90E0C94E90E0C94E90EC4
:1000E0000C94E90E16932593419350936A93799358
:1000F000939397939F932FCE34CE39CE43CE4DCE4C
:10010000C6CE57CE5FCE67CE71CE7BCE85CE94CE97
:100110009ECEC6CEA8CEB2CEBCCEE8CEEBCEDACE48
:10012000DECEE4CE22CFEFCEF3CEF9CEFDCE01CFA0
:1001300007CF0BCF0FCF22CF15CF19CF1DCF084A36
:10014000D73B3BCE016E84BCBFFDC12F3D6C7431EB
:100150009ABD56833DDA3D00C77F11BED9E4BB4C42
:100160003E916BAAAABE000000803F05A84CCDB20C
:10017000D44EB93836A9020C50B9918688083CA6ED
:10018000AAAA2ABE000000803F004D383420582023
:1001900059205A20450043616E6E6F7420656E745D
:1001A0006572207375626469723A20004D323400C2
:1001B0004D3233202573006175746F25692E6700F9
:1001C0006572726F722077726974696E6720746FDE
:1001D0002066696C65004E6F74205344207072690C
:1001E0006E74696E67002F005344207072696E74DC
:1001F000696E67206279746520002E0044656C6525
:1002000074696F6E206661696C65642C2046696C48
:10021000653A200046696C652064656C65746564A8
:100220003A002E006F70656E206661696C65642C03
:100230002046696C653A200057726974696E6720C0
:10024000746F2066696C653A20002E006F70656ED1
:10025000206661696C65642C2046696C653A2000F3
:100260002E006F70656E206661696C65642C204697
:10027000696C653A200046696C652073656C65633E
:10028000746564002053697A653A200046696C659C
:10029000206F70656E65643A20002E006F70656E89
:1002A000206661696C65642C2046696C653A2000A3
:1002B0004E6F772066726573682066696C653A20B8
:1002C000004E6F7720646F696E672066696C653ACF
:1002D00020002220706F73002220706172656E749E
:1002E0003A2200535542524F5554494E45204341FE
:1002F0004C4C207461726765743A2200747279699B
:100300006E6720746F2063616C6C207375622D675B
:10031000636F64652066696C657320776974682013
:10032000746F6F206D616E79206C6576656C732ECD
:10033000204D4158206C6576656C2069733A0053F6
:10034000442063617264206F6B006F70656E526F42
:100350006F74206661696C656400766F6C756D659D
:100360002E696E6974206661696C6564005344206F
:10037000696E6974206661696C006563686F3A0034
:100380004572726F723A0048617264636F646564AB
:100390002044656661756C742053657474696E677A
:1003A00073204C6F61646564002044002049002084
:1003B00020204D3330312050005049442073657463
:1003C00074696E67733A00205A0020590020204D4E
:1003D000323036205800486F6D65206F6666736551
:1003E0007420286D6D293A00204500205A002058BD
:1003F0000020420020540020204D32303520530090
:10040000416476616E636564207661726961626CD5
:1004100065733A20533D4D696E206665656472616F
:10042000746520286D6D2F73292C20543D4D696E05
:100430002074726176656C206665656472617465AE
:1004400020286D6D2F73292C20423D6D696E696DDA
:10045000756D207365676D656E742074696D6520B8
:10046000286D73292C20583D6D6178696D756D205C
:100470005859206A65726B20286D6D2F73292C20C6
:10048000205A3D6D6178696D756D205A206A6572DC
:100490006B20286D6D2F73292C2020453D6D6178D0
:1004A000696D756D2045206A65726B20286D6D2F12
:1004B00073290020540020204D3230342053004155
:1004C0006363656C65726174696F6E3A20533D6158
:1004D0006363656C65726174696F6E2C20543D7244
:1004E00065747261637420616363656C65726174C5
:1004F000696F6E00204500205A0020590020204DD1
:100500003230312058004D6178696D756D2041633E
:1005100063656C65726174696F6E20286D6D2F73F1
:1005200032293A00204500205A0020590020204D51
:100530003230332058004D6178696D756D206665E5
:100540006564726174657320286D6D2F73293A009C
:10055000204500205A0020590020204D39322058D3
:100560000053746570732070657220756E69743AFB
:10057000006563686F3A0053544F505045442E2035
:10058000005072696E7465722073746F7070656468
:100590002064756520746F206572726F72732E20EF
:1005A00046697820746865206572726F7220616E8A
:1005B0006420757365204D39393920746F20726558
:1005C00073746172742E202854656D706572617445
:1005D0007572652069732072657365742E2053658A
:1005E0007420697420616674657220726573746129
:1005F0007274696E6729004B494C4C45442E2000AB
:100600005072696E7465722068616C7465642E2026
:100610006B696C6C28292063616C6C656421006FC8
:100620006B00526573656E643A20000A00207A3AC6
:10063000200020793A200020783A200042656400AA
:100640002200556E6B6E6F776E20636F6D6D616EFD
:10065000643A2022004368616E67652066696C61B8
:100660006D656E74000A00207A70726F62655F7A41
:100670006F66667365743A20007A5F6D696E3A2022
:1006800000795F6D696E3A2000785F6D696E3A207F
:1006900000205A3A0020593A0020436F756E7420AA
:1006A000583A200020453A00205A3A0020593A0092
:1006B000583A004649524D574152455F4E414D45CB
:1006C0003A4D61726C696E2056313B2053707269ED
:1006D0006E7465722F6772626C206D6173687570DD
:1006E00020666F722067656E36204649524D57412D
:1006F00052455F55524C3A68747470733A2F2F67A5
:1007000069746875622E636F6D2F4572696B5A61EB
:100710006C6D2F4D61726C696E2F2050524F544F8B
:10072000434F4C5F56455253494F4E3A312E30207D
:100730004D414348494E455F545950453A524F4206
:100740004F33445231563320455854525544455244
:100750005F434F554E543A3120555549443A303055
:100760003030303030302D303030302D303030308F
:100770002D303030302D303030303030303030307F
:1007800030300A00524F424F334452315633204FDB
:1007900066662E00524F424F334452315633207218
:1007A000656164792E0042656420646F6E652E0079
:1007B00020423A0020453A00543A004265642048FD
:1007C000656174696E672E0048656174696E6720A3
:1007D000646F6E652E0020573A0020453A00543A67
:1007E0000048656174696E672E2E2E002042403AE3
:1007F0000020403A00202F003A00205400202F0013
:1008000020423A00202F006F6B20543A00256920C7
:100810006D696E2C2025692073656300456E642028
:1008200066696C65206C69737400426567696E2047
:1008300066696C65206C697374004E6F206D6F760D
:10084000652E00526573756D696E67207072696EF2
:1008500074005761697420666F7220757365722E1B
:100860002E2E000A00205A3A200020593A2000205B
:10087000583A20004265640020643A200020623A21
:10088000200045716E20636F656666696369656EF9
:1008900074733A20613A2000486F6D6520582F59D3
:1008A000206265666F7265205A00486F6D6520583A
:1008B0002F59206265666F7265205A005A20707247
:1008C0006F6265206F75742E20626564005A207017
:1008D000726F6265206F75742E2062656400486FC8
:1008E0006D6520582F59206265666F7265205A0029
:1008F000486F6D6520582F59206265666F726520BC
:100900005A00536C6565702E2E2E00256920686F85
:10091000757273202569206D696E75746573004466
:100920006F6E65207072696E74696E672066696C9F
:10093000650053544F505045442E20005072696E4C
:100940007465722073746F707065642064756520BF
:10095000746F206572726F72732E204669782074EE
:100960006865206572726F7220616E6420757365B0
:10097000204D39393920746F207265737461727437
:100980002E202854656D70657261747572652069DA
:10099000732072657365742E20536574206974200A
:1009A00061667465722072657374617274696E67D2
:1009B00029006F6B004E6F204C696E65204E756D7F
:1009C000626572207769746820636865636B73750C
:1009D0006D2C204C617374204C696E653A20004E7A
:1009E0006F20436865636B73756D20776974682049
:1009F0006C696E65206E756D6265722C204C61733A
:100A000074204C696E653A2000636865636B73758A
:100A10006D206D69736D617463682C204C61737413
:100A2000204C696E653A20004C696E65204E756DEC
:100A3000626572206973206E6F74204C617374203C
:100A40004C696E65204E756D6265722B312C204CA1
:100A5000617374204C696E653A20004D313130006D
:100A6000446F6E6520736176696E672066696C6598
:100A70002E006F6B004D3239002020506C616E6E7D
:100A8000657242756666657242797465733A2000D4
:100A90002046726565204D656D6F72793A20004A77
:100AA000756E203137203230313500436F6D7069FB
:100AB0006C65643A200028526F426F2033442C202A
:100AC00052312053696E676C652045787472756485
:100AD00065722900207C20417574686F723A20008D
:100AE0004A756E20313720323031352031373A3374
:100AF000313A313800204C61737420557064617450
:100B000065643A2000312E302E30004D61726C69E0
:100B10006E0020536F66747761726520526573654D
:100B20007400205761746368646F67205265736551
:100B300074002042726F776E206F75742052657357
:100B40006574002045787465726E616C205265731F
:100B5000657400506F7765725570007374617274BC
:100B6000002200656E717565696E672022002200A3
:100B7000656E717565696E67202200FFFFFF0000DA
:100B8000A0400000A0400000803F00007043000033
:100B90007E430000704300000000000000000000E1
:100BA00000000000704300007E430000704300001E
:100BB000000000000000000000006563686F3A005C
:100BC0004572726F723A0020746F6F206C6F6E679F
:100BD00020657874727573696F6E207072657665C2
:100BE0006E7465640020636F6C6420657874727540
:100BF00073696F6E2070726576656E7465640065EA
:100C000063686F3A007C3C3E5E2B3D3F2F5B5D3B53
:100C10002C2A225C00656E6473746F70732068699F
:100C2000743A205A00205A3A00656E6473746F70EB
:100C300073206869743A20590020593A00656E643F
:100C400073746F7073206869743A20580020583AA2
:100C500000656E6473746F7073206869743A200065
:100C600024F4D43050C38E20C2A24017828B70115E
:100C7000127A910D816CD90AA861E108C7586607FC
:100C8000615143061E4B5D05C145A7041A4111047D
:100C9000093D9803713931034036DB026533910217
:100CA000D4305402802E1D02632CEE01752AC5013A
:100CB000B028A001102781018F2564012B244B014E
:100CC000E0223401AC211F018D200D01801FFC00AA
:100CD000841EED00971DDF00B81CD200E61BC60085
:100CE000201BBC00641AB200B219A8000A19A000A7
:100CF0006A189900D117910040178B00B51684002F
:100D000031167E00B31579003A157300C7146F00D1
:100D100058146A00EE1366008813630025135E0002
:100D2000C7125B006C12570015125400C11151001C
:100D300070114F0021114B00D61049008D10470053
:100D40004610440002104200C00F4000800F3E00D9
:100D5000420F3C00060F3B00CB0E3800930E3700CD
:100D60005C0E3500270E3400F30D3200C10D31004A
:100D7000900D3000600D2E00320D2D00050D2C0061
:100D8000D90C2B00AE0C2900850C29005C0C270027
:100D9000350C27000E0C2600E80B2400C40B2400A1
:100DA000A00B23007D0B23005A0B2100390B2100DF
:100DB000180B2000F80A1F00D90A1E00BB0A1E00EB
:100DC0009D0A1D00800A1D00630A1C00470A1B00C3
:100DD0002C0A1B00110A1A00F7091A00DD09190074
:100DE000C4091900AB091900920917007B09180002
:100DF000630917004C091600360916002009160071
:100E00000A091500F5081500E0081400CC081400C4
:100E1000B8081400A4081400900813007D081200FC
:100E20006B0813005808120046081200340811001D
:100E3000230811001208110001081100F00710002A
:100E4000E0071000D0071000C0071000B0070F0027
:100E5000A107100091070E0083070F0074070F0011
:100E600065070E0057070E0049070E003B070D00EF
:100E70002E070E0020070D0013070D0006070D00BA
:100E8000F9060C00ED060D00E0060C00D4060C007F
:100E9000C8060C00BC060C00B0060C00A4060B0033
:100EA00099060C008D060B0082060B0077060B00DE
:100EB0006C060B0061060A0057060B004C060A0080
:100EC00042060A0038060A002E060A0024060A0016
:100ED0001A060A001006090007060A00FD050900A7
:100EE000F4050900EB050900E2050900D905090030
:100EF000D0050900C7050900BE050900B5050800B1
:100F0000AD050800A50509009C050800940508002A
:100F10008C050800840508007C050800740508009D
:100F20006C050700650508005D050700560508000B
:100F30004E05070047050700400508003805070073
:100F4000310507002A050700230507001C050600D8
:100F5000160507000F050700080506000205070033
:100F6000FB040600F5040700EE040600E804060092
:100F7000E2040700DB040600D5040600CF040600E7
:100F8000C9040600C3040600BD040600B704060039
:100F9000B1040500AC040600A6040600A004050088
:100FA0009B04060095040500900406008A040500D1
:100FB00085040500800406007A0405007504050018
:100FC000700405006B04050066040500610405005B
:100FD0005C04050057040500520405004D0405009B
:100FE00048040500430405003E0404003A040500DB
:100FF00035040500300404002C0405002704040017
:10100000230405001E0404001A040400160405004D
:10101000110404000D040400090405000404040084
:1010200000040400FC030400F8030400F4030400BB
:10103000F0030400EC030400E8030400E4030400EC
:10104000E0030400DC030400D8030400D40304001C
:10105000D0030400CC030400C8030300C50303004D
:1010600024F404D9201BC40C5C0E9804C4095F024C
:1010700065077101F405F900FB04B300480487001B
:10108000C10369005803550003034500BE023A003E
:101090008402310053022A002902250004022000A4
:1010A000E4011C00C8011900AF01170098011400E9
:1010B00084011300710110006101100051010E0044
:1010C00043010D0036010B002B010B0020010B002A
:1010D000150109000C01090003010800FB000800CC
:1010E000F3000800EB000700E4000600DE00060045
:1010F000D8000600D2000600CC000500C70005009D
:10110000C2000500BD000400B9000400B5000400E1
:10111000B1000400AD000400A9000400A500030014
:10112000A20003009F0004009B000300980003003E
:101130009500020093000300900003008D00020060
:101140008B00030088000200860002008400030078
:10115000810002007F0002007D0002007B0002008F
:10116000790002007700010076000200740002009E
:1011700072000100710002006F0002006D000100AA
:101180006C0002006A0001006900020067000100B3
:1011900066000100650001006400020062000100B9
:1011A00061000100600001005F0002005D000100BD
:1011B0005C0001005B0001005A00010059000100C1
:1011C00058000100570001005600010055000100C1
:1011D00054000100530000005300010052000100C0
:1011E00051000100500001004F0001004E000000BE
:1011F0004E0001004D0001004C0001004B000000BA
:101200004B0001004A0001004900010048000000B5
:1012100048000100470001004600000046000100B0
:1012200045000000450001004400010043000000AB
:1012300043000100420000004200010041000000A4
:1012400041000100400001003F0000003F0001009C
:101250003E0000003E0001003D0000003D00010096
:101260003C0000003C0000003C0001003B0000008E
:101270003B0001003A0000003A0001003900000084
:10128000390001003800000038000000380001007B
:101290003700000037000100360000003600000073
:1012A0003600010035000000350000003500010067
:1012B000340000003400000034000100330000005E
:1012C0003300000033000100320000003200000053
:1012D0003200010031000000310000003100010047
:1012E0003000000030000000300001002F0000003E
:1012F0002F0000002F0000002F0001002E00000032
:101300002E0000002E0001002D0000002D00000026
:101310002D0000002D0001002C0000002C0000001A
:101320002C0000002C0001002B0000002B0000000E
:101330002B0000002B0001002A0000002A00000002
:101340002A0000002A0001002900000029000000F6
:1013500029000000290000002900010028000000E9
:1013600028000000280000002800000028000100DC
:1013700027000000270000002700000027000000D1
:1013800027000100260000002600000026000000C3
:1013900026000000260001002500000025000000B6
:1013A00025000000250000002500000025000100A8
:1013B000240000002400000024000000240000009D
:1013C000240001002300000023000000230000008F
:1013D0002300000023000000230000002300010080
:1013E0002200000022000000220000002200000075
:1013F0002200000022000100210000002100000066
:101400002100000021000000210000002100000058
:10141000210001002000000020000000200000004A
:10142000200000002000000020000000200000003C
:10143000200001001F0000001F0000001F0000002E
:101440001F0000001F0000001F0000001F0001001F
:101450001E0000001E0000001E0000001E00000014
:101460006563686F3A004572723A204D41585445A1
:101470004D50204245440054656D7065726174752D
:1014800072652068656174656420626564207377A5
:10149000697463686564206F66662E204D415854F8
:1014A000454D50207472696767657265642021211B
:1014B000004572723A204D494E54454D50003A2035
:1014C00045787472756465722073776974636865B2
:1014D00064206F66662E204D494E54454D50207451
:1014E00072696767657265642021004572723A20EF
:1014F0004D415854454D50003A20457874727564FA
:101500006572207377697463686564206F66662E00
:10151000204D415854454D5020747269676765727B
:1015200065642021004572723A2054454D50204692
:10153000414C4C204552524F5200457874727564AC
:101540006572207377697463686564206F66662EC0
:101550002054656D70657261747572652066656C86
:101560006C20746F6F206D75636820647572696E8E
:1015700067207072696E742100202D20496E76619B
:101580006C6964206578747275646572206E756D1F
:10159000626572202100504944204175746F747552
:1015A0006E652066696E6973686564212050757484
:1015B00020746865206C617374204B702C204B691B
:1015C00020616E64204B6420636F6E7374616E746F
:1015D000732066726F6D2061626F766520696E742C
:1015E0006F20436F6E66696775726174696F6E2EE6
:1015F0006800504944204175746F74756E652066AB
:1016000061696C6564212074696D656F7574002073
:10161000403A006F6B20543A006F6B20423A005002
:101620004944204175746F74756E65206661696CFC
:101630006564212054656D706572617475726520F2
:10164000746F6F206869676800204B643A2000203F
:101650004B693A2000204B703A200020436C6173A4
:101660007369632050494420002054753A200020BB
:101670004B753A2000206D61783A2000206D696E2C
:101680003A200020643A200020626961733A200009
:101690004572726F723A0070012C0190012701B0FF
:1016A000012201C0011D01F00118011002130130D7
:1016B000020E016002090190020401C002FF000055
:1016C00003FA004003F5008003F000D003EB002094
:1016D00004E6007004E100E004DC004005D700C02F
:1016E00005D2004006CD00D006C8008007C30030F8
:1016F00008BE00F008B900C009B400B00AAF00B0DD
:101700000BAA00D00CA500000EA000500F9B00C03B
:101710001096005012910000148C00C0158700B084
:10172000178200B0197D00D01B7800001E730040A6
:10173000206E0090226900F024640040275F009032
:10174000295A00E02B5500102E500020304B00107D
:10175000324600E033410090353C001037370070CE
:10176000383200A0392D00B03A2800A03B23006099
:101770003C1E00103D1900903D1400103E0F0070FB
:101780003E0A00C03E0500003F0000436172642035
:1017900072656D6F766564004361726420696E7373
:1017A0006572746564002D2D3A2D2D002D2D2D00B0
:1017B0005344002059000120000120004D363030F4
:1017C000004368616E67652066696C616D656E7463
:1017D00000466C6F7700466C6F770046616E207331
:1017E000706565640046616E2073706565640042D3
:1017F000656400426564004E6F7A7A6C65004E6FD6
:101800007A7A6C6500537065656400537065656431
:10181000004D61696E00580059005A004578747295
:1018200075646572004578747275646572004D6FF9
:101830007665205A004D6F76652059004D6F7665AC
:101840002058004D6F76652061786973004D6F7682
:101850006520302E316D6D004D6F766520316D6DD8
:10186000004D6F76652031306D6D0050726570618E
:101870007265004D6F76652061786973004D383070
:101880000053776974636820706F776572206F6E9C
:10189000004D38310053776974636820706F776545
:1018A00072206F666600436F6F6C646F776E0050D6
:1018B00072656865617420414253005072656865C5
:1018C000617420504C4100473238004175746F20DC
:1018D000686F6D65004D38340044697361626C65F2
:1018E000207374657070657273004D61696E00429B
:1018F000656400426564004E6F7A7A6C65004E6FD5
:101900007A7A6C650046616E207370656564004686
:10191000616E2073706565640054656D70657261F9
:10192000747572650042656400426564004E6F7AAA
:101930007A6C65004E6F7A7A6C650046616E207332
:10194000706565640046616E20737065656400545F
:10195000656D706572617475726500507265686559
:1019600061742041425320636F6E66005072656857
:1019700065617420504C4120636F6E66005049448D
:101980002D43005049442D43005049442D440050FC
:1019900049442D44005049442D49005049442D49A3
:1019A000005049442D50005049442D500020022041
:1019B00046616374002002204661637400200220A7
:1019C0004D6178002002204D6178002002204D6991
:1019D0006E002002204D696E004F6666004F6E203B
:1019E000004F6666004F6E20004175746F74656D20
:1019F000700046616E2073706565640046616E20FC
:101A000073706565640042656400426564004E6FF2
:101A10007A7A6C65004E6F7A7A6C6500436F6E74EB
:101A2000726F6C004573746570732F6D6D00457334
:101A3000746570732F6D6D005A73746570732F6DBC
:101A40006D005A73746570732F6D6D0059737465F2
:101A500070732F6D6D005973746570732F6D6D0009
:101A60005873746570732F6D6D005873746570735F
:101A70002F6D6D00412D7265747261637400412D8C
:101A80007265747261637400416D61782065004114
:101A90006D6178206500416D6178207A00416D614B
:101AA00078207A00416D6178207900416D6178205D
:101AB0007900416D6178207800416D61782078006F
:101AC0005654726176206D696E00565472617620AC
:101AD0006D696E00566D696E00566D696E00566DCB
:101AE0006178206500566D6178206500566D6178DB
:101AF000207A00566D6178207A00566D61782079E1
:101B000000566D6178207900566D61782078005616
:101B10006D617820780056652D6A65726B00566598
:101B20002D6A65726B00567A2D6A65726B00567A63
:101B30002D6A65726B005678792D6A65726B005656
:101B400078792D6A65726B00416363656C0041634F
:101B500063656C005A204F6666736574005A204FA7
:101B6000666673657400436F6E74726F6C005265C5
:101B700073746F7265206661696C73616665004D90
:101B80006F74696F6E0054656D7065726174757203
:101B900065004D61696E004D383420582059205A37
:101BA0002045004D3234004D323320257300052E80
:101BB0002E004D61696E004E6F20534420636172A8
:101BC00064005072696E742066726F6D2053440019
:101BD00053746F70207072696E7400526573756D06
:101BE00065207072696E7400506175736520707243
:101BF000696E7400436F6E74726F6C005072657022
:101C00006172650054756E6500496E666F2073637E
:101C10007265656E000A00207A3A200020793A2029
:101C20000020783A200000000A0B02090C0D0E0873
:101C30000703040100000000000000000000000095
:101C40000000000000000000000000000000000094
:101C50000000121110000000000000000000000051
:101C60000000000000000000000000000102102041
:101C700020080810204010204080020102010804C2
:101C80000201010204081020408080402010080456
:101C900002018004020180402010080402010804AF
:101CA00002010102040810204080010204081020F3
:101CB000408005050505070508080808020202021C
:101CC0000A0A0808040404040101010101010101D8
:101CD0000303030303030303040707070C0C0C0CA3
:101CE0000C0C0C0C0202020206060606060606068C
:101CF0000B0B0B0B0B0B0B0B00002200250028001D
:101D00002B002E0031003400020100000501080103
:101D10000B0100002100240027002A002D003000C4
:101D2000330001010000040107010A01024E414E87
:101D3000494E495459494E46CDCCCC3D0AD7233C57
:101D400017B7D13877CC2B329595E6241FB14F0ABF
:101D5000000020410000C84200401C4620BCBE4C90
:101D6000CA1B0E5AAEC59D745E4BD1B5ECC9624B11
:101D700011241FBECFEFD1E2DEBFCDBF00E00CBF0C
:101D800014E0A0E0B2E0E4EAFFEB01E00BBF02C028
:101D900007900D92AA3BB107D9F723E1AAEBB4E073
:101DA00001C01D92A833B207E1F71DE1CEE6DDE1E7
:101DB00000E006C022970109FE010BBF0E9478D8FF
:101DC000C836D10780E00807A9F70E9492CF0C948B
:101DD000C1DF0C940000FC0114821782138212826E
:101DE0008DE494E09183808308952DE434E0FC0138
:101DF000318320832781222319F004960C9488775D
:101E00000895CF92DF92EF92FF920F931F93CF939B
:101E1000DF93EC018F96DFDFCE01805B9F4FDBDF2E
:101E20007E012FE6E20EF11C87016E013BE5C31A2D
:101E30003EEFD30AC801CFDF015E1F4F0C151D0511
:101E4000C9F7FE01E955FE4F89E181831482359679
:101E5000178ACE0186539E4FBEDFFE01E558FD4F27
:101E6000108211821282138238961082118212829D
:101E700013821A821B82188219826E0181E8C81AA5
:101E80008DEFD80AF6011082118212821382F801B6
:101E900011821082FE01E751FE4F108286E391E02D
:101EA000F7019C01119221503040E1F7FE01E95702
:101EB000FD4F81E080831EA61DA60E944BCD685772
:101EC0007C4E8F4F9F4FF601608371838283938393
:101ED000DF91CF911F910F91FF90EF90DF90CF9006
:101EE0000895FC0120E03EE2DB014C91403241F0DC
:101EF000283011F430833196DB014C9140833196C8
:101F00002F5F6F5F7F4F2B3079F7108208953F92DC
:101F10004F925F926F927F928F929F92AF92BF92F9
:101F2000CF92DF92EF92FF920F931F93CF93DF93A5
:101F3000CDB7DEB7C758D1090FB6F894DEBF0FBED4
:101F4000CDBF8C016B017A01312C84E0E80EF11CCD
:101F50002801E1E14E0E511C5801F8E7AF1AFDEFE0
:101F6000BF0A480186E7881A8DEF980A80E4682E38
:101F7000712C6C0E7D1EE4E06E0E711CA201BE0180
:101F80006F5F7F4FC7010E94F27518160CF021C1D8
:101F90002C85322F3871303109F09CC0F5018081D9
:101FA00091810197029708F495C0BE016F5F7F4F42
:101FB000CE0187589F4F95DFA0961FAEA097F601E0
:101FC0008081811107C067E173E0CE01815A9F4F84
:101FD0000E94C2DCB601CE01815A9F4F0E94C2DC32
:101FE000BE0167587F4FCE01815A9F4F0E94C2DCCD
:101FF00067E173E0CE01815A9F4F0E94C2DCCE019F
:10200000805C9F4FE8DE21E0AE0147585F4FB7018B
:10201000C3010E947F79811139C0F50180819181CE
:10202000892BA1F5EAE7F3E08491882341F09091B0
:10203000C00095FFFCCF8093C6003196F5CFE9E153
:10204000F3E08191882339F09091C00095FFFCCF97
:102050008093C600F6CF8091C00085FFFCCF8AE058
:102060008093C600FE01E758FF4F8191882339F025
:102070009091C00095FFFCCF8093C600F6CF809171
:10208000C00085FFFCCF8AE08093C6008BE1FE0193
:10209000EC5BFF4FDE01959601900D928A95E1F77A
:1020A00024968EAD9FAD24979CA38BA38DE494E0E2
:1020B0009AA389A3AE014F5D5F4FBE01615A7F4F66
:1020C000C80125DFCE01819690DECE01805C9F4F56
:1020D0008CDE54CF8981882309F47BC0853E09F4C6
:1020E0004DCF8E3209F44ACF8F3509F447CFF8012E
:1020F0008189882331F08E3209F440CF8F3509F47D
:102100003DCF23FD3BCF81E0303109F080E0F80185
:1021100084A7811108C08985873409F02FCF8A856B
:102120008E3709F42BCF98012C5F3F4FBE016F5FB4
:102130007F4FC901CA57DF4F2883C658D040C957BF
:10214000DF4F3883C758D040CCDEF50180819181C4
:10215000CA57DF4F2881C658D040C957DF4F388152
:10216000C758D0400097F1F4F6018191882339F0E7
:102170009091C00095FFFCCF8093C600F6CFF90187
:102180008191882339F09091C00095FFFCCF809316
:10219000C600F6CF8091C00085FFFCCF8AE0809317
:1021A000C600ECCE8130910539F4F4018081918133
:1021B000019691838083E2CE029709F0DFCE232D32
:1021C00030E0F401808191812817390711F03394B0
:1021D000D5CEC957DF4F0FB6F894DEBF0FBECDBFC7
:1021E000DF91CF911F910F91FF90EF90DF90CF90F3
:1021F000BF90AF909F908F907F906F905F904F9027
:102200003F900895EF92FF920F931F93CF93DF9328
:10221000CDB7DEB76F970FB6F894DEBF0FBECDBF58
:102220008C01FC01E857FD4F118210827C0183E391
:10223000E80EF11C40E050E0BA01C7010E94A5760B
:102240008BE1F701DE01159601900D928A95E1F779
:10225000F80181A992A99C838B838DE494E09A83F1
:102260008983AE014F5F5F4F64E674E0C8014FDEC3
:10227000CE010196BADD6F960FB6F894DEBF0FBEA1
:10228000CDBFDF91CF911F910F91FF90EF900895F7
:102290002BE1FB013496DC01149601900D922A95F6
:1022A000E1F7FB0122813381FC013383228308950E
:1022B000EF92FF920F931F93CF93DF93EC011B825A
:1022C0008EA9882321F0CE01C3960E9488777E01D3
:1022D00089E5E81A8EEFF80A45E360E0C7010E943D
:1022E000097281111FC0EAE7F3E08491882341F06D
:1022F0009091C00095FFFCCF8093C6003196F5CF3A
:10230000EDE6F3E08491882341F09091C00095FFC1
:10231000FCCF8093C6003196F5CF8091C00085FF39
:10232000FCCF76C08E0104551E4F41E0B701C801B5
:102330000E94727F811126C040E0B701C8010E944F
:10234000727F81111FC0E0E8F3E08491882341F09F
:102350009091C00095FFFCCF8093C6003196F5CFD9
:10236000EAE5F3E08491882341F09091C00095FF65
:10237000FCCF8093C6003196F5CF8091C00085FFD9
:10238000FCCF46C0B801CE01C3960E94967481115D
:102390001FC0E0E8F3E08491882341F09091C000F1
:1023A00095FFFCCF8093C6003196F5CFEAE4F3E0C9
:1023B0008491882341F09091C00095FFFCCF8093D9
:1023C000C6003196F5CF8091C00085FFFCCF20C0BC
:1023D00081E08B83EAE7F3E08491882341F09091D8
:1023E000C00095FFFCCF8093C6003196F5CFEFE398
:1023F000F3E08491882341F09091C00095FFFCCFD9
:102400008093C6003196F5CF8091C00085FFFCCF48
:102410008AE08093C6008E01015D1F4FB801CE0196
:10242000805B9F4F35DFC25BDF4F19830883DF91ED
:10243000CF911F910F91FF90EF900895FC011282B0
:1024400013820895FC012381222311F021E02283CD
:102450000895FC012281211112820895AF92BF924A
:10246000CF92DF92EF92FF920F931F93CF93DF9360
:102470001F92CDB7DEB78C018FE2FB0181935F0124
:10248000D12C41E07801FBE5EF1AFEEFFF0A9FE156
:10249000C92E2D2D30E0F701808191812817390751
:1024A000D8F4C29EC001C39E900D11248D589F4F39
:1024B000B501800F911F49830E943D74C501498178
:1024C0005C010196F5012081222321F04D3810F4A2
:1024D0004F5FF6CFD394DDCF47FD11C0B501C801E2
:1024E00082539E4F0F90DF91CF911F910F91FF90DC
:1024F000EF90DF90CF90BF90AF900C943D74F501BA
:1025000010820F90DF91CF911F910F91FF90EF906C
:10251000DF90CF90BF90AF9008952F923F924F924F
:102520005F926F927F928F929F92AF92BF92CF9263
:10253000DF92EF92FF920F931F93CF93DF93CDB76C
:10254000DEB7AC970FB6F894DEBF0FBECDBF8C01DF
:102550006B01342EFC018381882309F4D3C2EF522E
:10256000FE4F8081882309F4F8C02111C4C078018E
:10257000F7E1EF1AFEEFFF0AF7018081882361F18E
:10258000E0E8F3E08491882341F09091C00095FF4A
:10259000FCCF8093C6003196F5CFECEFF2E084914A
:1025A000882341F09091C00095FFFCCF8093C60036
:1025B0003196F5CF4AE050E061E070E08AEB94E0BC
:1025C0000E9440208091C00085FFFCCF8AE080936C
:1025D000C6000E946E2E96C2EAE7F3E0849188233B
:1025E00041F09091C00095FFFCCF8093C6003196DA
:1025F000F5CFE3EEF2E08491882341F09091C000A2
:1026000095FFFCCF8093C6003196F5CFF6018191FE
:10261000882339F09091C00095FFFCCF8093C600CD
:10262000F6CFE8EDF2E08491882341F09091C0006C
:1026300095FFFCCF8093C6003196F5CFF7018081DE
:102640003DE8B32EB801B89E600D711D1124625192
:102650007E4FC80103DFF7018081F801B89EE00DCD
:10266000F11D1124E251FE4F8191882339F09091A0
:10267000C00095FFFCCF8093C600F6CFE2EDF2E0FC
:102680008491882341F09091C00095FFFCCF809306
:10269000C6003196F5CF5801FDE7AF1AFDEFBF0A2E
:1026A000F50140815181628173812AE030E08AEB3B
:1026B00094E00E946C208091C00085FFFCCF8AE0EE
:1026C0008093C600F7012081F80184E0289FE00D87
:1026D000F11D1124AF0146515E4FF50180819181BA
:1026E000A281B381FA0180839183A283B3832F5F98
:1026F000F70120832CC0EAE7F3E08491882341F0BE
:102700009091C00095FFFCCF8093C6003196F5CF25
:10271000E1ECF2E08491882341F09091C00095FFB4
:10272000FCCF8093C6003196F5CFF60181918823C6
:1027300039F09091C00095FFFCCF8093C600F6CF92
:102740008091C00085FFFCCF8AE08093C600C8015D
:1027500082539E4F0E94887730C0F801E751FE4FA8
:102760001082EAE7F3E08491882341F09091C00061
:1027700095FFFCCF8093C6003196F5CFE0EBF2E0F9
:102780008491882341F09091C00095FFFCCF809305
:10279000C6003196F5CFF6018191882339F09091EA
:1027A000C00095FFFCCF8093C600F6CF8091C0009B
:1027B00085FFFCCF8AE08093C600F8011282CE012B
:1027C00001965C0108DB28019EE4490E511CC801FA
:1027D0008F96F20191838083F60180818F3209F018
:1027E00084C06FE270E0C6010E94CDDC01967C01DE
:1027F0002AE0222EE114F10409F47DC06FE270E0BA
:10280000C7010E94CDDC4C01009709F475C0E816A1
:10281000F90608F071C03C016E187F08A301B701EA
:10282000CE0180960E94EDDCE0E2F0E0EC0FFD1FAF
:10283000E60DF71D1082FE01B0968191882339F0D4
:102840009091C00095FFFCCF8093C600F6CF809199
:10285000C00085FFFCCF2092C600F201608171812B
:102860006115710519F06C5F7F4F02C060E070E088
:1028700021E0AE01405E5F4FCE0105960E947F7958
:1028800081112BC0ECE9F2E08491882341F0909112
:10289000C00095FFFCCF8093C6003196F5CFFE01B6
:1028A000B0968191882339F09091C00095FFFCCFBC
:1028B0008093C600F6CFEAE9F2E08491882341F0E4
:1028C0009091C00095FFFCCF8093C6003196F5CF64
:1028D0008091C00085FFFCCFEAC0F201B182A082E6
:1028E0007401FFEFEF1AFF0A85CFC801805B9F4F8D
:1028F000F201918380837601C80182539E4F4C017F
:10290000F20160817181332009F499C0611571056C
:1029100019F06C5F7F4F02C060E070E021E0A7011A
:10292000C4010E947F79882309F45FC0F401818982
:102930009289A389B489F801E558FD4F808391837A
:10294000A283B383ECE8F2E08491D801A558BD4F8F
:10295000882349F09091C00095FFFCCF8093C6007A
:1029600031968491F5CFF7018191882339F09091C8
:10297000C00095FFFCCF8093C600F6CFE4E8F2E0FC
:102980008491882341F09091C00095FFFCCF809303
:10299000C6003196F5CF4D915D916D917C912AE005
:1029A00030E08AEB94E00E946C208091C00085FFAB
:1029B000FCCF8AE08093C600F801ED57FD4F1082EE
:1029C000118212821382E6E7F2E08491882341F0BB
:1029D0009091C00095FFFCCF8093C6003196F5CF53
:1029E0008091C00085FFFCCF85C0E2E6F2E08491D3
:1029F000882341F09091C00095FFFCCF8093C600E2
:102A00003196F5CFF7018191882339F09091C0007C
:102A100095FFFCCF8093C600F6CFE0E6F2E084910C
:102A2000882341F09091C00095FFFCCF8093C600B1
:102A30003196F5CF8091C00085FFFCCF38C061157D
:102A4000710519F06C5F7F4F02C060E070E026E511
:102A5000A701C4010E947F7981112DC0ECE4F2E04E
:102A60008491882341F09091C00095FFFCCF809322
:102A7000C6003196F5CFF7018191882339F0909106
:102A8000C00095FFFCCF8093C600F6CFEAE4F2E0E9
:102A90008491882341F09091C00095FFFCCF8093F2
:102AA000C6003196F5CF8091C00085FFFCCF8AE04B
:102AB0008093C60025C081E0F8018083E8E3F2E05E
:102AC0008491882341F09091C00095FFFCCF8093C2
:102AD000C6003196F5CFF6018191882339F09091A7
:102AE000C00095FFFCCF8093C600F6CF8091C00058
:102AF00085FFFCCF8AE08093C600C7010E9495A4A1
:102B0000C50173D9AC960FB6F894DEBF0FBECDBF2A
:102B1000DF91CF911F910F91FF90EF90DF90CF90B9
:102B2000BF90AF909F908F907F906F905F904F90ED
:102B30003F902F90089521E0FC01218340E0EDCCEF
:102B40003F924F925F926F927F928F929F92AF923D
:102B5000BF92CF92DF92EF92FF920F931F93CF938A
:102B6000DF93CDB7DEB7AC970FB6F894DEBF0FBEDC
:102B7000CDBF7C015B01FC018381882309F400C186
:102B8000C70182539E4F0E948877F7011282CE01BF
:102B900001966C0120D927019EE4490E511CC70102
:102BA0008F96F20191838083F50180818F3209F045
:102BB00084C06FE270E0C5010E94CDDC8C010F5F24
:102BC0001F4F4AE0342E0115110509F47CC06FE255
:102BD00070E0C8010E94CDDC4C01009709F474C07C
:102BE0000817190708F070C03C01601A710AA301A8
:102BF000B801CE0180960E94EDDCE0E2F0E0EC0F3F
:102C0000FD1FE60DF71D1082FE01B096819188230D
:102C100039F09091C00095FFFCCF8093C600F6CFAD
:102C20008091C00085FFFCCF3092C600F201608128
:102C300071816115710519F06C5F7F4F02C060E012
:102C400070E021E0AE01405E5F4FCE0105960E942C
:102C50007F7981112BC0E4E2F2E08491882341F076
:102C60009091C00095FFFCCF8093C6003196F5CFC0
:102C7000FE01B0968191882339F09091C00095FFB4
:102C8000FCCF8093C600F6CFE2E2F2E08491882385
:102C900041F09091C00095FFFCCF8093C600319623
:102CA000F5CF8091C00085FFFCCF65C0F201D182D5
:102CB000C08284010F5F1F4F86CFC701805B9F4F8B
:102CC000F201918380838501F201808191810097D7
:102CD00011F0049602C080E090E0B8010E94557A9D
:102CE000882301F1E4E1F2E08491882341F090919E
:102CF000C00095FFFCCF8093C6003196F5CFF80158
:102D00008191882339F09091C00095FFFCCF80938A
:102D1000C600F6CFF701ED57FD4F108211821282E7
:102D200013822CC0ECEFF1E08491882341F0909164
:102D3000C00095FFFCCF8093C6003196F5CFF80117
:102D40008191882339F09091C00095FFFCCF80934A
:102D5000C600F6CFEAEFF1E08491882341F090912C
:102D6000C00095FFFCCF8093C6003196F5CF8091CF
:102D7000C00085FFFCCF8AE08093C600C60135D82D
:102D8000AC960FB6F894DEBF0FBECDBFDF91CF91EA
:102D90001F910F91FF90EF90DF90CF90BF90AF9079
:102DA0009F908F907F906F905F904F903F9008958D
:102DB000CF93DF93EC018B818823C1F1E8EEF1E042
:102DC0008491882341F09091C00095FFFCCF8093BF
:102DD000C6003196F5CFFE01ED57FD4F4081518180
:102DE000628173812AE030E08AEB94E00E946C20DB
:102DF000E6EEF1E08491882341F09091C00095FFC8
:102E0000FCCF8093C6003196F5CFC558DD4F488181
:102E100059816A817B812AE030E08AEB94E00E944C
:102E20006C208091C00085FFFCCF11C0E6EDF1E081
:102E30008491882341F09091C00095FFFCCF80934E
:102E4000C6003196F5CF8091C00085FFFCCF8AE0A7
:102E50008093C600DF91CF910895AF92BF92CF9239
:102E6000DF92EF92FF920F931F93CF93DF935C015A
:102E7000EB01FB0101900020E9F78F0101501109DE
:102E8000061B170B6C01F2E3CF1AFEEFDF0AF60107
:102E900010826EE470E0CE010E94CDDC7C010097D0
:102EA00029F4F8013197EC0FFD1F0DC060E270E0CE
:102EB0000E94CDDCEC0121966AE270E0C7010E941D
:102EC000CDDCFC0131978DE081838AE0828313821F
:102ED000BE01C50186539E4F0E941B7CF601808176
:102EE000882309F1E0E8F3E08491882341F0909190
:102EF000C00095FFFCCF8093C6003196F5CFE0EC83
:102F0000F1E08491882341F09091C00095FFFCCFBF
:102F10008093C6003196F5CF8091C00085FFFCCF2D
:102F20008AE08093C600DF91CF911F910F91FF90AF
:102F3000EF90DF90CF90BF90AF9008952F923F9287
:102F40004F925F926F927F928F929F92AF92BF92B9
:102F5000CF92DF92EF92FF920F931F93CF93DF9365
:102F6000CDB7DEB7CC55D1090FB6F894DEBF0FBE92
:102F7000CDBF8C0189579D4F5C01662339F0F50167
:102F80001082F801838181111DC015C0FC01808170
:102F9000882309F4ADC0F801E158FD4FC080D1800D
:102FA000E280F3800E944BCDC616D706E806F906EC
:102FB00008F49EC0E4CFC8017BD9F801838188233F
:102FC00009F496C0F80186A58F9385A58F9387EBAA
:102FD00091E09F938F937E01FFE3EF0EF11CFF9230
:102FE000EF920E94FCDC0F900F900F900F900F90CB
:102FF0000F90B12CF70101900020E9F73197EE19FD
:10300000FF09BE1684F46701CB0CD11CB7FCDA941F
:10301000F6018081992787FD90950E9453DCF60187
:103020008083B394E7CF4801F3E38F0E911C40E017
:1030300050E0BA01C4010E94A576512CCE01019640
:103040006C0150EB652E51E0752E5E0191E2A90EE8
:10305000B11C40E050E0B601C4010E94F2751816A0
:10306000DCF5412CF60101900020E9F73197EC19CD
:10307000FD094E1674F41601240C311C47FC3A94D9
:10308000F101808190E00E9453DCF1018083439440
:10309000E9CF8A858E37E9F245E050E0B701C601F5
:1030A0000E94DFDC892BA9F6FF92EF927F926F924C
:1030B000BF92AF920E94FCDCC5010E94E8248CEA1A
:1030C00091E00E945B250F900F900F900F900F9052
:1030D0000F9055245394BDCF511004C08FEF9FEF34
:1030E000F80104C0F80185A596A5019696A785A7C5
:1030F000C45ADF4F0FB6F894DEBF0FBECDBFDF91CD
:10310000CF911F910F91FF90EF90DF90CF90BF90E4
:10311000AF909F908F907F906F905F904F903F9077
:103120002F9008950F931F93CF93DF93EC018C01A1
:1031300002531E4FC8010E943E77C8010E94887743
:1031400018821982DF91CF911F910F910895EF920C
:10315000FF920F931F93CF93DF93CDB7DEB76F9797
:103160000FB6F894DEBF0FBECDBF8C017C018EE49C
:10317000E80EF11CC801805B9F4FF70191838083AB
:10318000E65CFD4F22E030E031832083329670E030
:103190007183608340E050E0BA0104960E94A576F6
:1031A000F701808191812BE1FC013496DE011596B7
:1031B00001900D922A95E1F7FC01828193819C8315
:1031C0008B838DE494E09A838983AE014F5F5F4FD8
:1031D00064E674E0C8010E94870FCE0101960E9448
:1031E000F50E6F960FB6F894DEBF0FBECDBFDF9120
:1031F000CF911F910F91FF90EF900895CF92DF92A2
:10320000EF92FF920F931F93CF93DF93CDB7DEB76B
:103210006F970FB6F894DEBF0FBECDBF8C016C0167
:103220002EE4C20ED11C805B9F4FF60191838083F8
:10323000E65CFD4F21E030E0318320837801F6E742
:10324000EF1AFDEFFF0AF7011182108240E050E013
:10325000BA0104960E94A576F601808191812BE146
:10326000FC013496DE01159601900D922A95E1F746
:10327000FC01828193819C838B838DE494E09A830B
:103280008983AE014F5F5F4F64E674E0C8010E941E
:10329000870FCE0101960E94F50EF7018081918182
:1032A0006F960FB6F894DEBF0FBECDBFDF91CF9102
:1032B0001F910F91FF90EF90DF90CF900895AF9204
:1032C000BF92CF92DF92EF92FF920F931F93CF9313
:1032D000DF93CDB7DEB76F970FB6F894DEBF0FBEA2
:1032E000CDBF8C017B01CE0101960E94EB0EF8014F
:1032F000E95AFF4F80816801811104C02FE2C20E9C
:10330000D11C03C080E5C80ED11C21E0A701B60185
:103310006C5F7F4FCE0105960E947F7981112DC091
:10332000EAE7F3E08491882341F09091C00095FF93
:10333000FCCF8093C6003196F5CFE6E9F1E08491A9
:10334000882341F09091C00095FFFCCF8093C60088
:103350003196F5CFF7018191882339F09091C00023
:1033600095FFFCCF8093C600F6CF8091C00085FF0B
:10337000FCCF8AE08093C60036C0F801EB55FE4FC3
:10338000808191818A30910530F59C012F5F3F4FFC
:10339000318320832FE1289F7001299FF00C112495
:1033A0002FE6E20EF11CE00EF11E5C01B701C70131
:1033B0004F960E94481181E0A81AB1082FE1E21A45
:1033C000F1088FEFA816B80689F7B601C801815930
:1033D0009F4F0E944811BE016F5F7F4FC801805B05
:1033E0009F4F0E944811CE0101960E94F50E6F96E4
:1033F0000FB6F894DEBF0FBECDBFDF91CF911F9106
:103400000F91FF90EF90DF90CF90BF90AF90089515
:10341000EF92FF920F931F93CF93DF93EC01CB5565
:10342000DE4F2881398121153105F9F0215031090C
:10343000398328838C0101591F4FB801805B9F4F4E
:103440000E944811C80100E010E07C012FE1E20E6B
:10345000F11C288139810217130738F40F5F1F4FC1
:10346000B7010E944811C701F0CFDF91CF911F91A2
:103470000F91FF90EF900895EF92FF920F931F939B
:10348000CF93DF93EC010E945B888E0107511E4FA2
:10349000F80180819E0122533E4F79018823A1F1DA
:1034A000C9010E948877F801808181508083BE0124
:1034B000FDE88F9F600D711D112462517E4F21E048
:1034C00041E0CE012AD8F8018081FE0124E0829FEC
:1034D000E00DF11D1124E651FE4F408151816281C2
:1034E0007381FE01ED57FD4F4083518362837383E7
:1034F000C7010E94A576CE01DF91CF911F910F9158
:10350000FF90EF900C9422120E94E988C7010E945C
:1035100088771A828AE891E00E945B258091B00E3C
:103520008823F9F01092B00EC0911607D0E0CC0FAE
:10353000DD1FC352DE4E68817981882777FD809533
:10354000982F0E94F5D420913D0230913E02409187
:103550003F02509140020E9456D6181614F4198268
:103560001882DF91CF911F910F91FF90EF900895F6
:10357000CF93DF93C1E7D5E0FE018491882341F02A
:103580009091C00095FFFCCF8093C6003196F5CF97
:10359000E1E6F5E08491882341F09091C00095FF29
:1035A000FCCF8093C6003196F5CF8091C00085FF97
:1035B000FCCF8AE08093C600FE018491E1E7F5E04C
:1035C000882349F09091C00095FFFCCF8093C600FE
:1035D00031968491F5CF4091110F5091120F609167
:1035E000130F7091140F89E595E00E94A924409172
:1035F000150F5091160F6091170F7091180F86E5F7
:1036000095E00E94A9244091190F50911A0F6091E2
:103610001B0F70911C0F83E595E00E94A924409137
:103620001D0F50911E0F60911F0F7091200F80E5AC
:1036300095E00E94A9248091C00085FFFCCF8AE01C
:103640008093C600FE018491E1E7F5E0882349F00C
:103650009091C00095FFFCCF8093C6003196849175
:10366000F5CFE6E3F5E08491882341F09091C00026
:1036700095FFFCCF8093C6003196F5CF8091C000B6
:1036800085FFFCCF8AE08093C600FE018491E1E7CC
:10369000F5E0882349F09091C00095FFFCCF80931E
:1036A000C60031968491F5CF4091210F5091220FA1
:1036B0006091230F7091240F8DE295E00E94A92460
:1036C0004091250F5091260F6091270F7091280F80
:1036D0008AE295E00E94A9244091290F50912A0F77
:1036E00060912B0F70912C0F87E295E00E94A92426
:1036F00040912D0F50912E0F60912F0F7091300F30
:1037000084E295E00E94A9248091C00085FFFCCF4F
:103710008AE08093C600FE018491E1E7F5E088230A
:1037200049F09091C00095FFFCCF8093C600319680
:103730008491F5CFE6E0F5E08491882341F0909103
:10374000C00095FFFCCF8093C6003196F5CF8091E5
:10375000C00085FFFCCF8AE08093C600FE01849103
:10376000E1E7F5E0882349F09091C00095FFFCCF98
:103770008093C60031968491F5CF4091010F50910E
:10378000020F6091030F7091040F8DEF94E00E947F
:10379000BA244091050F5091060F6091070F709168
:1037A000080F8AEF94E00E94BA244091090F5091CB
:1037B0000A0F60910B0F70910C0F87EF94E00E943D
:1037C000BA2440910D0F50910E0F60910F0F709120
:1037D000100F84EF94E00E94BA248091C00085FF0E
:1037E000FCCF8AE08093C600FE018491E1E7F5E01A
:1037F000882349F09091C00095FFFCCF8093C600CC
:1038000031968491F5CFEFEBF4E08491882341F079
:103810009091C00095FFFCCF8093C6003196F5CF04
:103820008091C00085FFFCCF8AE08093C600FE0136
:103830008491E1E7F5E0882349F09091C00095FF7D
:10384000FCCF8093C60031968491F5CF4091F90E5C
:103850005091FA0E6091FB0E7091FC0E86EB94E095
:103860000E94A9244091F50E5091F60E6091F70E3A
:103870007091F80E83EB94E00E94A9248091C0001F
:1038800085FFFCCF8AE08093C600FE018491E1E7CA
:10389000F5E0882349F09091C00095FFFCCF80931C
:1038A000C60031968491F5CFE0E0F4E0849188235E
:1038B00041F09091C00095FFFCCF8093C6003196F7
:1038C000F5CF8091C00085FFFCCF8AE08093C600D1
:1038D000FE018491E1E7F5E0882349F09091C00072
:1038E00095FFFCCF8093C60031968491F5CF40912F
:1038F000FD0E5091FE0E6091FF0E7091000F87EF4C
:1039000093E00E94A9244091E50E5091E60E60914B
:10391000E70E7091E80E84EF93E00E94A924409195
:10392000310F5091320F6091330F7091340F81EF4E
:1039300093E00E94BA244091F10E5091F20E6091F2
:10394000F30E7091F40E8EEE93E00E94A924409144
:10395000ED0E5091EE0E6091EF0E7091F00E8BEE29
:1039600093E0F7D74091E90E5091EA0E6091EB0E8B
:103970007091EC0E88EE93E0ECD78091C00085FF4B
:10398000FCCF8AE08093C600FE018491E1E7F5E078
:10399000882349F09091C00095FFFCCF8093C6002A
:1039A00031968491F5CFE6EDF3E08491882341F0E0
:1039B0009091C00095FFFCCF8093C6003196F5CF63
:1039C0008091C00085FFFCCF8AE08093C600FE0195
:1039D0008491E1E7F5E0882349F09091C00095FFDC
:1039E000FCCF8093C60031968491F5CF40912A0791
:1039F00050912B0760912C0770912D078DEC93E06F
:103A0000A8D740912E0750912F07609130077091F1
:103A100031078AEC93E09DD74091320750913307EC
:103A2000609134077091350787EC93E092D78091CD
:103A3000C00085FFFCCF8AE08093C600FE01849120
:103A4000E1E7F5E0882349F09091C00095FFFCCFB5
:103A50008093C60031968491F5CFE9EBF3E0849131
:103A6000882341F09091C00095FFFCCF8093C60061
:103A70003196F5CF8091C00085FFFCCF8AE080931E
:103A8000C600FE01C491E1E7F5E0CC2349F0809146
:103A9000C00085FFFCCFC093C6003196C491F5CF1E
:103AA0004091800250918102609182027091830264
:103AB0008FEA93E04ED760917C0270917D028091F5
:103AC0007E0290917F020E942294AB01BC018CEA9D
:103AD00093E03FD7609178027091790280917A02E9
:103AE00090917B020E942E94AB01BC0189EA93E085
:103AF00030D78091C00085FFFCCF8AE08093C6005C
:103B0000DF91CF910895AF92BF92CF92DF92EF9263
:103B1000FF920F931F93CF93DF93CDB7DEB7E0975C
:103B20000FB6F894DEBF0FBECDBF80E1E7EAF2E04A
:103B3000DE01919601900D928A95E1F780E1E7EB25
:103B4000F2E0DE01519601900D928A95E1F780E155
:103B5000E7ECF2E0DE01119601900D928A95E1F713
:103B60006E0181E2C80ED11C81E1E82E8FE0F82EB3
:103B70008E010F5E1F4F61E27FE0AE014F5F5F4F2E
:103B800091E0A92E9FE0B92E20E030E0F60181916E
:103B90009191A191B1916F01F70181939193A193BB
:103BA000B1937F01F80181919191A191B1918F0120
:103BB000FB0181939193A193B193BF01FA0181918C
:103BC0009191A191B191AF01F50181939193A1934D
:103BD000B1935F012F5F3F4F24303105B9F60E944A
:103BE000525F80E090E8A2EAB4E48093F90E9093EB
:103BF000FA0EA093FB0EB093FC0E80E090E8ABE3CE
:103C0000B5E48093F50E9093F60EA093F70EB09363
:103C1000F80E1092FD0E1092FE0E1092FF0E1092F2
:103C2000000F80E29EE4A0E0B0E08093310F90931B
:103C3000320FA093330FB093340F1092E50E109211
:103C4000E60E1092E70E1092E80E80E090E0A8E8F1
:103C5000B1E48093F10E9093F20EA093F30EB09323
:103C6000F40E8DEC9CECACECBEE38093ED0E9093E7
:103C7000EE0EA093EF0EB093F00E80E090E0A0EA7D
:103C8000B0E48093E90E9093EA0EA093EB0EB0930C
:103C9000EC0E1092320710923307109234071092F4
:103CA000350710922E0710922F07109230071092AE
:103CB000310710922A0710922B0710922C071092AE
:103CC0002D0782ED90E090933E1280933D1287E3A2
:103CD00090E090933C1280933B128FEF90E0909392
:103CE0003A12809339122BEE30E030933812209341
:103CF000371220E530E0309336122093351290933E
:103D000034128093331210921707109218071092F2
:103D1000190710921A078AE999E9A1EBB1E4809397
:103D2000800290938102A0938202B093830261E7A4
:103D30007DE38AE89FE30E941C9460937C02709369
:103D40007D0280937E0290937F0260E070E084EEBB
:103D500092E40E9428946093780270937902809391
:103D60007A0290937B020E949C8A80E090E0A0E817
:103D7000BFE38093740290937502A0937602B09390
:103D80007702E1E7F5E08491882341F09091C0004B
:103D900095FFFCCF8093C6003196F5CFE7E8F3E0BE
:103DA0008491882341F09091C00095FFFCCF8093CF
:103DB000C6003196F5CF8091C00085FFFCCF8AE028
:103DC0008093C600E0960FB6F894DEBF0FBECDBF5D
:103DD000DF91CF911F910F91FF90EF90DF90CF90E7
:103DE000BF90AF9008951F920F920FB60F921124BB
:103DF0000BB60F922F933F934F935F936F938F93D5
:103E00009F93EF93FF936091C60020913B05309103
:103E10003C05C90101968F77992740913D05509146
:103E20003E058417950741F0F901E554FB4F608387
:103E300090933C0580933B05FF91EF919F918F916B
:103E40006F915F914F913F912F910F900BBE0F900B
:103E50000FBE0F901F9018959A01AB01211581EEAE
:103E600038074105510549F182E08093C00060E0C8
:103E700079E08DE390E00E9446D821503109410954
:103E80005109CA01B90122E030E040E050E00E944F
:103E900046D83093C5002093C4008091C100806152
:103EA0008093C1008091C10088608093C10080919F
:103EB000C10080688093C10008951092C00020E185
:103EC00030E0E7CF20913D0530913E0580913B05E4
:103ED00090913C058217930771F0F901E554FB4F6F
:103EE00080812F5F3F4F2F77332730933E052093FC
:103EF0003D0590E008958FEF9FEF089580913D0577
:103F000090913E0590933C0580933B0508954F9218
:103F10005F926F927F928F929F92AF92BF92CF9259
:103F2000DF92EF92FF920F931F93CF93DF93CDB762
:103F3000DEB7A0970FB6F894DEBF0FBECDBF5C0111
:103F40004115510561057105E9F420E030E040E3D9
:103F500050E060E070E0A0960FB6F894DEBF0FBEB0
:103F6000CDBFDF91CF911F910F91FF90EF90DF9028
:103F7000CF90BF90AF909F908F907F906F905F9009
:103F80004F905BC08E010F5F1F4FC12CD12C76016B
:103F90004801422E512C612C712C8FEFC81AD80A7F
:103FA000E80AF80ACB01BA01A30192010E9424D8C1
:103FB000CA01F80161938F01A901BC0141155105A6
:103FC0006105710551F7F1E0CF1AD108E108F10858
:103FD000F401EC0DFD1D80818A3010F440E301C036
:103FE00047E3480F552747FD5095652F752F20E073
:103FF00030E0C50122D081E0C81AD108E108F108FB
:10400000EFEFCE16DE06EE06FE0611F7A0960FB60F
:10401000F894DEBF0FBECDBFDF91CF911F910F91FE
:10402000FF90EF90DF90CF90BF90AF909F908F90D8
:104030007F906F905F904F9008952115310539F46E
:104040008091C00085FFFCCF4093C60008952A30C0
:10405000310509F41CC05BCFCF93DF93EC0120E066
:1040600030E04DE050E060E070E0E7DF20E030E07D
:104070004AE050E060E070E0CE01DF91CF91DDCF0B
:104080009A01AB01662757FD6095762FD6CFCF9268
:10409000DF92EF92FF92CF93DF93EC016A017B01F5
:1040A00077FF0FC020E030E04DE250E060E070E0CC
:1040B000C4DFF094E094D094C094C11CD11CE11CE6
:1040C000F11C2AE0B701A601CE01DF91CF91FF904C
:1040D000EF90DF90CF901BCF2115310539F48091FF
:1040E000C00085FFFCCF4093C600089510CF9A0111
:1040F000462F50E060E070E0EFCFCF93DF93EC010C
:104100009A01AB0160E070E0E7DFCE01DF91CF9173
:10411000A3CF8F929F92AF92BF92CF92DF92EF92F6
:10412000FF921F93CF93DF93EC016A017B01122F63
:1041300020E030E0A901C701B6010E9453D487FFF7
:104140000CC020E030E04DE250E060E070E0CE01D5
:1041500074DFF7FAF094F7F8F094B12C60E070E0B7
:1041600080E09FE3B11641F020E030E040E251E40E
:104170000E945AD4B394F6CF9B01AC01C701B6019B
:104180000E947AD36B017C010E94C7D44B015C0171
:104190000E94F3D49B01AC01C701B6010E9479D300
:1041A0006B017C012AE0B501A401CE01B0DE112330
:1041B00061F0E0EAF4E08191882339F09091C00049
:1041C00095FFFCCF8093C600F6CF112319F120E0B4
:1041D00030E040E251E4C701B6010E9428D76B01EC
:1041E0007C010E94C2D44B01AA2497FCA094BA2C53
:1041F000B501A401CE014BDFC501B4010E94F5D485
:104200009B01AC01C701B6010E9479D36B017C010F
:104210001150DBCFDF91CF911F91FF90EF90DF9096
:10422000CF90BF90AF909F908F90089572CFFC0178
:104230006591759185919491089580910B0290916B
:104240000C02A0910D02B0910E028093F0069093A3
:10425000F106A093F206B093F306809123029091A9
:104260002402909347078093460784E690E090935A
:104270002402809323020E944BCD60934F057093DC
:104280005005809351059093520581E00C944E8126
:1042900080E00E944E818091F0069091F106A091FD
:1042A000F206B091F30680930B0290930C02A09358
:1042B0000D02B0930E0280914607909147079093AC
:1042C0002402809323020E944BCD60934F0570938C
:1042D0005005809351059093520508954F925F9237
:1042E0006F927F928F929F92AF92BF92CF92DF9206
:1042F000EF92FF920F931F9340900B0250900C028D
:1043000060900D0270900E02812C912CEAEFAE2E7F
:10431000E5E4BE2E80920B0290920C02A0920D0258
:10432000B0920E0260933607709337078093380778
:104330009093390720933A0730933B0740933C070B
:1043400050933D07E0923E07F0923F0700934007ED
:1043500010934107E6E1F7E0FF93EF93F5E58F2E29
:10436000982CF5E0AF2EF3E4BF2EA2E4CA2EA7E00E
:10437000DA2E0E94C8530E945B8840920B02509232
:104380000C0260920D0270920E020F900F901F911E
:104390000F91FF90EF90DF90CF90BF90AF909F90E4
:1043A0008F907F906F905F904F9008952F923F92E3
:1043B0004F925F926F927F928F929F92AF92BF9235
:1043C000CF92DF92EF92FF920F931F93CF93DF93E1
:1043D00085E492E00E94CEC7EDE2F2E06081718157
:1043E0008281938160930B0270930C0280930D0283
:1043F00090930E0220E030E040E752E40E945AD44D
:104400004B015C01CAE3D7E0288139814A815B8195
:10441000E6E3F7E06081718182819381B6E12B2E22
:10442000B7E03B2E3F922F9212E4C12E17E0D12E1F
:10443000E12CF12C00E211EC0E94C8530E945B8831
:1044400082E00E94C3884B015C01288139814A8146
:104450005B81E6E3F7E06081718182819381850170
:1044600074010E94445E86E89BE0E1DE9B01AC01A2
:10447000C501B4010E947AD32B013C0120E030E059
:1044800040E752E460910B0270910C0280910D02A2
:1044900090910E020E945AD44B015C01288139810F
:1044A0004A815B81E6E3F7E06081718182819381DB
:1044B0003F922F92830172010E94C8530E945B8831
:1044C00020E030E040E85EE3EDE2F2E060817181FF
:1044D000828193810E9428D74B015C0160930B027B
:1044E00070930C0280930D0290930E0286E89BE07D
:1044F0009EDE6B017C0120E030E040E752E4C50124
:10450000B4010E945AD44B015C01A7019601C70176
:10451000B6010E947AD39B01AC01C301B2010E9493
:1045200079D37B018C01288139814A815B81E6E363
:10453000F7E060817181828193813F922F92F2E452
:10454000CF2EF7E0DF2E0E94C8530E945B8882E0E6
:104550000E94C3887B018C0160933E0770933F07E4
:104560008093400790934107288139814A815B817C
:10457000E6E3F7E060817181828193810E94445E6D
:104580000F900F900F900F900F900F90DF91CF91A1
:104590001F910F91FF90EF90DF90CF90BF90AF9061
:1045A0009F908F907F906F905F904F903F902F9053
:1045B00008952F923F924F925F926F927F928F92C7
:1045C0009F92AF92BF92CF92DF92EF92FF920F93A2
:1045D0001F93CF93DF93CDB7DEB72A970FB6F8942A
:1045E000DEBF0FBECDBF9E838D83FC01E558F44F27
:1045F000B490880F991F880F991F9A8789878A5CC2
:10460000984F9A838983DC011D921D921D921C9202
:104610001397BEE32B2EB7E03B2EF101E080F18033
:1046200002811381AAE3B7E02D913D914D915C91F8
:10463000E6E3F7E06081718182819381E2E4CE2E2E
:10464000E7E0DE2E0E94445E89859A858657944F66
:10465000EEDD6B017C016B2D772767FD7095872F51
:10466000972F0E94F5D42B013C0129853A852C5FB8
:10467000384F3C832B8320E030E040EC5FE3C70100
:10468000B6010E9428D7A30192010E9428D7AB81CE
:10469000BC816D937D938D939C931397E985FA85E7
:1046A000EB5DFD4FF887EF8360817181828193819B
:1046B00060930B0270930C0280930D0290930E0294
:1046C00020E030E040E752E40E945AD44B015C0104
:1046D000ACE0B7E0ED90FD900D911C91E8E0F7E0C3
:1046E0002081318142815381A4E0B7E06D917D91B9
:1046F0008D919C91A6E1B7E0BF93AF93F0E1CF2EEF
:10470000F7E0DF2E0E94C8530E945B88A981BA811E
:104710001D921D921D921C921397F101E080F18071
:1047200002811381AAE3B7E02D913D914D915C91F7
:10473000E6E3F7E06081718182819381A2E4CA2E71
:10474000A7E0DA2E0E94445E29853A852258344F2C
:104750001901C9016CDD9058A30192010E9428D76C
:10476000AB81BC816D937D938D939C93139720E0D7
:1047700030E040E752E460910B0270910C028091AE
:104780000D0290910E020E945AD44B015C01ECE0A4
:10479000F7E0E080F18002811381A8E0B7E02D917D
:1047A0003D914D915C91E4E0F7E0608171818281FF
:1047B0009381A6E1B7E0BF93AF93B0E1CB2EB7E012
:1047C000DB2E0E94C8530E945B88C10130DD9B0133
:1047D000AC010E947AD3A30192010E9428D7AB8139
:1047E000BC816D937D938D939C93139720E030E073
:1047F00040E05FE3EF81F885608171818281938180
:104800000E9428D760930B0270930C0280930D02D4
:1048100090930E0220E030E040E752E40E945AD428
:104820004B015C01ACE0B7E0ED90FD900D911C9167
:10483000E8E0F7E02081318142815381A4E0B7E0D4
:104840006D917D918D919C91A6E1B7E0BF93AF935F
:104850000E94C8530E945B8889859A858A56944F26
:10486000E6DC09851A85065D184FD8012D913D912A
:104870004D915C910E947AD3E981FA8160837183C2
:104880008283938389859A858255944FD0DC2985CC
:104890003A85225E384F7901D8012D913D914D9195
:1048A0005C910E947AD3F701608371838283938342
:1048B00089859A858E55944FBADC29853A852F5E75
:1048C0003D4F7901D8012D913D914D915C910E9410
:1048D0007AD3F7016083718382839383E981FA81BC
:1048E00080819181A281B381EB81FC81808391835E
:1048F000A283B38310920B0210920C0210920D024D
:1049000010920E020E944781ED81FE81E55EF84F14
:1049100081E080830F900F900F900F900F900F9079
:104920002A960FB6F894DEBF0FBECDBFDF91CF91B0
:104930001F910F91FF90EF90DF90CF90BF90AF90BD
:104940009F908F907F906F905F904F903F902F90AF
:104950000895FC012491222341F03091C00035FFDD
:10496000FCCF2093C6000196F4CF22E030E08AEB22
:1049700094E05CCCFC012491222341F03091C000F2
:1049800035FFFCCF2093C6000196F4CF2AE030E03B
:104990008AEB94E0A1CBCF93DF931F921F92CDB708
:1049A000DEB780913213909133139E012F5F3F4FFA
:1049B000009719F42853334102C0281B390B3A835E
:1049C000298389819A810F900F90DF91CF9108956B
:1049D0002091590530915A05243031050CF06AC0F8
:1049E00040915B0550915C0560E6649F9001659F76
:1049F000300D1124BC01C9018D599A4F0E94D8DC99
:104A0000EAEBFBE08491882341F09091C00095FF90
:104A1000FCCF8093C6003196F5CFE0E7FBE08491B0
:104A2000882341F09091C00095FFFCCF8093C60091
:104A30003196F5CF80915B0590915C0520E6289F2B
:104A4000F001299FF00D1124ED59FA4F819188232F
:104A500039F09091C00095FFFCCF8093C600F6CF4F
:104A6000EEE6FBE08491882341F09091C00095FF31
:104A7000FCCF8093C6003196F5CF8091C00085FFB2
:104A8000FCCF8AE08093C60080915B0590915C0525
:104A9000019664E070E00E9411D890935C058093C9
:104AA0005B058091590590915A05019690935A059E
:104AB0008093590508952091590530915A05243065
:104AC00031050CF06AC040915B0550915C0560E6D1
:104AD000649F9001659F300D1124BC01C9018D595F
:104AE0009A4F0E945BDCEAEBFBE08491882341F063
:104AF0009091C00095FFFCCF8093C6003196F5CF12
:104B0000E3E6FBE08491882341F09091C00095FF9B
:104B1000FCCF8093C6003196F5CF80915B059091D4
:104B20005C0520E6289FF001299FF00D1124ED5926
:104B3000FA4F8191882339F09091C00095FFFCCF06
:104B40008093C600F6CFE1E6FBE08491882341F034
:104B50009091C00095FFFCCF8093C6003196F5CFB1
:104B60008091C00085FFFCCF8AE08093C6008091D1
:104B70005B0590915C05019664E070E00E9411D89D
:104B800090935C0580935B058091590590915A053F
:104B9000019690935A0580935905089560E089E243
:104BA0000E9423CFA09A0895269A2E980895F6DFA2
:104BB000FBDF40E950ED63E070E08AEB94E04CD914
:104BC000EBE5FBE08491882341F09091C00095FFD4
:104BD000FCCF8093C6003196F5CF8091C00085FF51
:104BE000FCCF8AE08093C6008AEB9BE0FC01249115
:104BF000222341F03091C00035FFFCCF2093C60046
:104C00003196F5CF24B720FF14C0E3E5FBE03491E3
:104C1000332341F04091C00045FFFCCF3093C600E4
:104C20003196F5CF3091C00035FFFCCF3AE030939C
:104C3000C60021FF14C0E3E4FBE03491332341F0CC
:104C40004091C00045FFFCCF3093C6003196F5CFB0
:104C50003091C00035FFFCCF3AE03093C60022FF10
:104C600014C0E2E3FBE03491332341F04091C000F3
:104C700045FFFCCF3093C6003196F5CF3091C00090
:104C800035FFFCCF3AE03093C60023FF14C0E2E2C8
:104C9000FBE03491332341F04091C00045FFFCCF4D
:104CA0003093C6003196F5CF3091C00035FFFCCF70
:104CB0003AE03093C60025FF14C0E2E1FBE0249106
:104CC000222341F03091C00035FFFCCF2093C60075
:104CD0003196F5CF2091C00025FFFCCF2AE020932C
:104CE000C60014BEEBE0FBE02491222341F030919A
:104CF000C00035FFFCCF2093C6003196F5CFE5E02C
:104D0000FBE02491222341F03091C00035FFFCCF1D
:104D10002093C6003196F5CF2091C00025FFFCCF2F
:104D20002AE02093C600FC012491EAEBFBE0222359
:104D300049F03091C00035FFFCCF2093C60031967A
:104D40002491F5CFE5EFFAE02491222341F0309150
:104D5000C00035FFFCCF2093C6003196F5CFE0EEC2
:104D6000FAE02491222341F03091C00035FFFCCFBE
:104D70002093C6003196F5CFE4EDFAE0249122238A
:104D800041F03091C00035FFFCCF2093C600319632
:104D9000F5CFE6EBFAE02491222341F03091C000F8
:104DA00035FFFCCF2093C6003196F5CF2091C0008F
:104DB00025FFFCCF2AE02093C600EBEAFAE024911D
:104DC000222341F03091C00035FFFCCF2093C60074
:104DD0003196F5CFEFE9FAE02491222341F03091AA
:104DE000C00035FFFCCF2093C6003196F5CF20914F
:104DF000C00025FFFCCF2AE02093C600FC0184916F
:104E0000EAEBFBE0882349F09091C00095FFFCCFCE
:104E10008093C60031968491F5CFE0E9FAE0849161
:104E2000882341F09091C00095FFFCCF8093C6008D
:104E30003196F5CFB0DD4AE050E0BC018AEB94E05A
:104E40001FD9E9E7FAE08491882341F09091C000EE
:104E500095FFFCCF8093C6003196F5CF4AE050E035
:104E600060ED74E08AEB94E00BD98091C00085FF7F
:104E7000FCCF8AE08093C60010925F051092600517
:104E800010926105109262050E94831D0E94B81A5B
:104E90000E94BE8A0E9446520E94D8870E9415A591
:104EA000FFEF23ED80E3F15020408040E1F700C0A8
:104EB00000000895809153059091540560E070E0E2
:104EC00001960C94B2D980915305909154054AE013
:104ED00050E060E070E001960C941ADB682F7727B1
:104EE00067FD709520915D0530915E0540E6429F1B
:104EF000C001439F900D11248D599A4F0E94CDDC23
:104F0000909354058093530521E0892B09F420E008
:104F1000822F08950E944BCD60934F0570935005EA
:104F2000809351059093520508950E944BCD609354
:104F30004F05709350058093510590935205E09171
:104F40005D05F0915E05E15AFA4F8081811114C030
:104F5000EFE1F6E08491882341F09091C00095FF45
:104F6000FCCF8093C6003196F5CF8091C00085FFBD
:104F7000FCCF8AE08093C60008958AEB94E00E94FB
:104F80007E1FE2E2F6E08491882341F09091C00018
:104F900095FFFCCF8093C6003196F5CF4091E8068F
:104FA0005091E9066091EA067091EB064F5F5F4F02
:104FB0006F4F7F4F2AE030E08AEB94E03ED880913B
:104FC000C00085FFFCCF8AE08093C600AECF2F9251
:104FD0003F924F925F926F927F928F929F92AF9289
:104FE000BF92CF92DF92EF92FF920F931F93CF93D6
:104FF000DF93CDB7DEB76E970FB6F894DEBF0FBE66
:10500000CDBF30E6932E04E010E04CE3E42E49E0FF
:10501000F42E5AE0852E62EBC62E69E0D62E772458
:10502000739480913B0590913C0520913D05309112
:105030003E05821B930B8F779927892B09F425C294
:105040008091590590915A0504970CF01EC28AEB85
:1050500094E00E94621F809358052091560530917C
:1050600057058A3061F08D3051F08A3321F49091E8
:105070005505992321F02F3531050CF428C1211550
:10508000310509F442C180915B0590915C05989EC1
:105090005001999EB00C1124F501E20FF31FED5958
:1050A000FA4F10822091550521110CC1FC01E15AE3
:1050B000FA4F108295012D593A4F19016EE470E0B4
:1050C000C9010E94CDDC0097E9F1909354058093CB
:1050D0005305821993098A0D9B1D4AE050E060E058
:1050E00070E08C599A4F0E941ADB6093EC06709323
:1050F000ED068093EE069093EF062091E80630913E
:10510000E9064091EA065091EB062F5F3F4F4F4F63
:105110005F4FA0905B05B0905C0562177307840732
:10512000950709F4F5C09A9CC0019B9C900D112431
:105130006BE57AE08D599A4F0E9492DC892B09F039
:10514000E7C076C16AE270E0C1010E94CDDC892B24
:1051500009F444C0E0ECFBE08491882341F0909195
:10516000C00095FFFCCF8093C6003196F5CFE5EBEC
:10517000F9E08491882341F09091C00095FFFCCF25
:105180008093C6003196F5CF4091E8065091E9062C
:105190006091EA067091EB062AE030E08AEB94E039
:1051A0000E941D208091C00085FFFCCF8AE0809383
:1051B000C6001092570510925605CDC28091EC069C
:1051C0009091ED06A091EE06B091EF068093E8066F
:1051D0009093E906A093EA06B093EB0680915B05F5
:1051E00090915C05989E5001999EB00C1124C501C8
:1051F0008D599A4F1C0167E470E00E94CDDC009746
:1052000009F44BC090935405809353058219930978
:105210008A0D9B1D60E070E08C599A4F0E94B2D9B4
:105220000E94C2D46430710508F037C080914105F6
:1052300081111AC080914C0781112FC0F601849111
:10524000E2EBF9E0882349F09091C00095FFFCCF94
:105250008093C60031968491F5CF8091C00085FF80
:10526000FCCF8092C60019C0F7018491ECE3F9E00D
:10527000882349F09091C00095FFFCCF8093C60031
:1052800031968491F5CF8091C00085FFFCCF80924C
:10529000C60082E399E00E94A4A480915B059091EE
:1052A0005C050196B8010E9411D890935C0580932B
:1052B0005B058091590590915A05019690935A0586
:1052C000809359051092570510925605AACE8B333C
:1052D00011F470925505909155059111A2CE40910F
:1052E0005B0550915C05B9016F5F7F4F7093570567
:1052F00060935605949EF001959EF00D1124E20FE7
:10530000F31FED59FA4F80838CCE1092550523C2BE
:105310009A9C10019B9C300C1124C1018D599A4F0D
:105320005C016AE270E00E94CDDC009789F5E0EC58
:10533000FBE08491882341F09091C00095FFFCCF61
:105340008093C6003196F5CFEFEDF9E08491882384
:1053500041F09091C00095FFFCCF8093C60031963C
:10536000F5CF4091E8065091E9066091EA06709108
:10537000EB062AE030E08AEB94E00E941D20809149
:10538000C00085FFFCCF8AE08093C600F6DD11CF18
:1053900020E0612CF101E20FF11DED59FA4F30814F
:1053A0003A3219F02F5F6326F5CF9093540580931E
:1053B00053058A199B09820D931D60E070E08C599A
:1053C0009A4F0E94B2D90E94C2D4262D30E02617EF
:1053D000370709F4F3CEE0ECFBE08491882341F039
:1053E0009091C00095FFFCCF8093C6003196F5CF19
:1053F000E9E0FAE08491882341F09091C00095FFA4
:10540000FCCF8093C6003196F5CF4091E8065091CD
:10541000E9066091EA067091EB062AE030E08AEB3B
:1054200094E00E941D208091C00085FFFCCFABCF8F
:10543000E0ECFBE08491882341F09091C00095FF5F
:10544000FCCF8093C6003196F5CFE8E2FAE0849174
:10545000882341F09091C00095FFFCCF8093C60057
:105460003196F5CF4091E8065091E9066091EA0641
:105470007091EB062AE030E08AEB94E00E941D2058
:105480008091C00085FFFCCF7ECF80914E0788239E
:1054900009F461C18091560590915705892B09F057
:1054A0005AC18091590590915A05892B11F4109297
:1054B0003F0598EE292E93E0392E412C512C2CE3F8
:1054C000C22ED12CE12CF12C8E010F5F1F4F80E6F4
:1054D000682E772473944091CF095091D009609140
:1054E000D1097091D2098091C7099091C809A09102
:1054F000C909B091CA09481759076A077B0708F01C
:105500002AC18091590590915A0504970CF023C146
:1055100080913F0581111FC180912209909123093B
:10552000A0912409B09125098093CF099093D009C7
:10553000A093D109B093D2098AE199E00E94DC7569
:10554000482F809358058A30B9F04D30A9F0433286
:1055500029F420915505211103C00EC04A33C9F327
:1055600020915605309157052F3531052CF48F3F8A
:10557000FFEF9F0709F0D1C04091CF095091D009AA
:105580006091D1097091D2098091C7099091C809A1
:10559000A091C909B091CA09481759076A077B0742
:1055A00008F481C0EFE1F9E08491882341F0909103
:1055B000C00095FFFCCF8093C6003196F5CF809157
:1055C000C00085FFFCCFFAE0F093C6000E944BCDEF
:1055D0006093430570934405809345059093460579
:1055E0008090470590904805A0904905B0904A05E5
:1055F000681979098A099B09A20191010E9424D89E
:1056000049015A01CA01B901A70196010E9424D893
:10561000CA01B901A70196010E9424D87F936F9314
:10562000C501B40120E13EE040E050E00E9424D8F2
:105630003F932F93ABE0B9E0BF93AF931F930F93CA
:105640000E94FCDCEAEBFBE084910FB6F894DEBF2D
:105650000FBECDBF882349F09091C00095FFFCCFCD
:105660008093C60031968491F5CFF801819188230B
:1056700039F09091C00095FFFCCF8093C600F6CF23
:105680008091C00085FFFCCF3AE03093C600C8018E
:105690000E9495A48CE497E00E943C1A61E08CE49F
:1056A00097E00E949E1780915805833211F4709202
:1056B0003F0520915605309157052115310509F414
:1056C00024CE80915B0590915C05689EF001699EF7
:1056D000F00D1124E20FF31FED59FA4F1082FC0177
:1056E000E15AFA4F70822091590530915A052F5F87
:1056F0003F4F30935A0520935905019664E070E0BE
:105700000E9411D890935C0580935B05109255051B
:105710001092570510925605DECE4B3311F470925D
:105720005505409155054111D2CE40915B055091F0
:105730005C05B9016F5F7F4F709357056093560505
:10574000649EF001659EF00D1124E20FF31FED59E8
:10575000FA4F8083C0CE6E960FB6F894DEBF0FBEB0
:10576000CDBFDF91CF911F910F91FF90EF90DF9010
:10577000CF90BF90AF909F908F907F906F905F90F1
:105780004F903F902F9008958F929F92AF92BF922B
:10579000CF92DF92EF92FF920F931F93CF93DF93FD
:1057A00075E4E72E74E0F72E06E317E0C4E0D7E0D7
:1057B000E8E4CE2EE7E0DE2EF70181917F018EDB5B
:1057C000882311F177DB4B015C01F60180818111A7
:1057D00003C06091E30601C061E070E080E090E00A
:1057E0000E94F5D4F80120813181428153810E94C9
:1057F00028D79B01AC01C501B4010E947AD368830C
:1058000079838A839B8309C0F80180819181A28179
:10581000B38188839983AA83BB830C5F1F4F24962F
:10582000FFEFCF1ADF0A89E4E81684E0F80621F6D4
:1058300086E454DB8823D1F03DDB6B017C0160936F
:10584000F4067093F5068093F6069093F70620E031
:1058500030E0A9010E9456D6181644F4C0920B02FB
:10586000D0920C02E0920D02F0920E02DF91CF91E5
:105870001F910F91FF90EF90DF90CF90BF90AF906E
:105880009F908F90089580DF89E428DB882351F072
:1058900011DB6093F8067093F9068093FA069093F3
:1058A000FB0608C01092F8061092F9061092FA064C
:1058B0001092FB068AE412DB882351F0FBDA609336
:1058C000FC067093FD068093FE069093FF060895F4
:1058D0001092FC061092FD061092FE061092FF0632
:1058E0000895CF92DF92EF92FF92CF93DF93EC0176
:1058F000C0901102D0901202E0901302F0901402B6
:10590000A7019601688179818A819B810E9456D680
:10591000181624F4C882D982EA82FB82C09015024C
:10592000D0901602E0901702F0901802A70196019D
:105930006C817D818E819F810E9456D6181624F439
:10594000CC82DD82EE82FF82C0901902D0901A02D2
:10595000E0901B02F0901C02A701960168857985F2
:105960008A859B850E9456D6181624F4C886D98647
:10597000EA86FB86DF91CF91FF90EF90DF90CF908A
:1059800008954F925F926F927F928F929F92AF9203
:10599000BF92CF92DF92EF92FF920F931F93CF931C
:1059A000DF93CDB7DEB728970FB6F894DEBF0FBEF2
:1059B000CDBF84E097E095DF0E944BCD60934F050B
:1059C00070935005809351059093520520910407E0
:1059D00030910507409106075091070729833A83C4
:1059E0004B835C836091360770913707809138074D
:1059F000909139070E9453D44090080750900907AE
:105A000060900A0770900B0720910C0730910D07EA
:105A100040910E0750910F072D833E834F83588787
:105A200081118BC0A301920160913A0770913B07ED
:105A300080913C0790913D070E9453D481117DC015
:105A400020E030E040E752E460910B0270910C02DC
:105A500080910D0290910E020E945AD44B015C017C
:105A600086E197E09F938F93F0E1CF2EF7E0DF2E52
:105A7000ED80FE800F811885A301920169817A81F2
:105A80008B819C810E94C8530F900F9080910407D6
:105A900090910507A0910607B091070780933607FC
:105AA00090933707A0933807B09339078091080780
:105AB00090910907A0910A07B0910B0780933A07CC
:105AC00090933B07A0933C07B0933D0780910C0750
:105AD00090910D07A0910E07B0910F0780933E079C
